:020000040800F2
:100000000000022035400008B9190008BB1900089B
:10001000BD190008BF190008C11900080000000040
:10002000000000000000000000000000C3190008EC
:10003000C519000800000000C7190008C919000808
:10004000854000088540000885400008854000087C
:10005000854000088540000885400008854000086C
:10006000854000088540000885400008854000085C
:10007000854000088540000885400008854000084C
:10008000D1190008854000088540000800000000E4
:100090000000000000000000000000008540000893
:1000A000854000088540000885400008854000081C
:1000B000854000088540000885400008854000080C
:1000C00085400008854000088540000885400008FC
:1000D00085400008854000088540000800000000B9
:1000E00085400008854000088540000800000000A9
:1000F0000000000000000000000000008540000833
:100100000000000085400008854000088540000888
:1001100000000000000000000000000000000000DF
:100120008540000885400008E11900088540000866
:1001300085400008000000000000000000000000F2
:1001400000000000000000000000000085400008E2
:10015000854000088540000885400008854000086B
:1001600085400008854000080000000000000000F5
:10017000000000000000000000000000000000007F
:1001800000000000854000080000000000000000A2
:080190008540000885400008CD
:100198000348044B834202D0034B03B1184770470E
:1001A8000C0000200C000020000000000548064B51
:1001B8001B1AD90F01EBA301491002D0034B03B15D
:1001C800184770470C0000200C00002000000000B9
:1001D80010B5064C237843B9FFF7DAFF044B13B187
:1001E8000448AFF300800123237010BD0C000020E9
:1001F800000000008840000808B5044B1BB1044902
:100208000448AFF30080BDE80840CFE700000000D5
:10021800100000208840000870B50F4B0F4DAB420E
:10022800A3EB050607D0B610002455F8043B0134AB
:100238009847A642F9D803F023FF094D094B5E1BE6
:10024800AB424FEAA60606D0002455F8043B013419
:100258009847A642F9D870BD984400089844000809
:10026800984400089C440008830730B547D0541EC2
:10027800002A3ED0CAB2034601E0013C39D303F854
:10028800012B9D07F9D1032C2CD9CDB205EB0525FF
:100298000F2C05EB054535D9A4F1100222F00F0CFF
:1002A80003F1100EE6444FEA121C1A46C2E9005543
:1002B800C2E9025510327245F8D10CF1010214F06E
:1002C8000C0F03EB021204F00F0C13D0ACF1040373
:1002D80023F003030433134442F8045B9342FBD135
:1002E8000CF003042CB1C9B21C4403F8011BA3424F
:1002F800FBD130BD64461346002CF4D1F9E7034620
:100308001446C0E71A46A446E0E700BF10EE103ACC
:10031800194923F000428A421BD9B2F1FF4F02D398
:1003280030EE400A704700B583B0684600F070F8B8
:1003380000F003000128DDED010A9DED000A13D04D
:1003480002280BD098B9012000F01AF803B05DF824
:1003580004FBDFED0A0A002000F012B8012000F0CB
:100368000FF8B1EE400AF1E700F01AFDEEE700F0F1
:1003780017FDB1EE400AE9E7D80F493F0000000039
:1003880010EE103A23F00043B3F1485F04D2FDEEBB
:10039800C07A17EE903A5BB360EE007A9FED157A5B
:1003A800DFED155A9FED156ADFED156AE7EE875AFE
:1003B8009FED147AA5EEA76A20EE275AE6EE276A83
:1003C800A6EEA77A30B9DFED106AE7EE876AA6EEE7
:1003D800850A704727EE457AF6EE006AA0EEA67AFF
:1003E800DFED0A6AD7EE270AE5EE260A30EE600A44
:1003F800704700BFD3C92E2F342FD7B21BEF383622
:10040800010D50B98988083CABAA2ABEABAA2A3E7E
:1004180070B510EE103A884A23F00044944286B032
:10042800054671D9854A94421E4624D823F00042D5
:10043800002BDFED837A834922F00F02B0EE407A79
:1004480040F3E0808A4270EE677A09BF9FED7E7ABA
:10045800DFED7E6ADFED7E6A77EEC77A37EEE67A01
:1004680077EEC77A80ED007A77EEE67AC0ED017A0A
:10047800012006B070BD774A944252D9B4F1FF4FBB
:1004880048D2E215863AA4EBC25307EE903ABDEE85
:10049800E77ADFED716AB8EEC77A77EEC77A8DED45
:1004A800037A67EEA67ABDEEE77AB8EEC77A77EEFA
:1004B800C77A8DED047A67EEA67AF5EE407AF1EE0A
:1004C80010FACDED057A40F09880B5EE407AF1EE5D
:1004D80010FA0CBF01230223604901910221009107
:1004E80003A8294600F0CCF8002EC2DA95ED007A70
:1004F800D5ED017AB1EE477AF1EE677A85ED007AAB
:10050800C5ED017A4042B4E7002285ED000A426059
:100518000020AEE770EE407AC0ED017AC0ED007AB7
:10052800F6E700F0A5F89FED4E7A9FED456AF6EEE6
:10053800007AE0EE077A9FED457AFDEEE77A17EE4E
:10054800900AF8EEE76A1F28A6EEC60A66EE877AD2
:10055800B1EE666A20DC434A411E26F0004352F899
:10056800212023F0FF03934216D030EE677A30EE55
:10057800470A002E30EE670A85ED007A85ED010AFC
:10058800BFF677AFB1EE477AB1EE400A85ED007A53
:1005980085ED010A40426CE730EE677AE21517EE06
:1005A800103AC3F3C753C3EBD453082BDFDD9FEDD9
:1005B800267A9FED275AF0EE405AE6EE075A70EE7B
:1005C800657AE6EE077AD6EE857A35EEE77A17EEA3
:1005D800103AC3F3C753D21A192A10DD9FED227AB5
:1005E8009FED225AB0EE650AA6EE070A75EEC07AAC
:1005F800E6EE077AD6EE857AB7E703236CE7B0EE26
:10060800650AB4E78A4270EE277A09BF9FED0E7A31
:10061800DFED0E6ADFED0E6A77EE877A37EEA67A9F
:1006280077EEC77A80ED007A77EEA67AC0ED017A88
:100638004FF0FF301DE700BFD80F493FE3CB16400E
:10064800800FC93FD00FC93F004435374344353781
:1006580008A3852E800F49430000804320410008ED
:1006680084F9223FA040000800A3852E32318D2452
:1006780010EE103A23F0004300EE103A704700BF26
:100688002DE9F04F2DED048BDBB01C469446039307
:100698000A46CD4B68991CF1040F53F82160824635
:1006A80004F1FF38C0F24982BCF1030348BF0CF1E2
:1006B8000403DB10029301334FEAC30EACEB0E03C5
:1006C8000593029B16EB0800A3EB080316D4013030
:1006D8009FEDBE7A699C18441EA9002BA4BF54F84C
:1006E800235007EE905A03F10103ACBFF8EEE77A06
:1006F800F0EE477A8342E1EC017AEED1002EC0F2A7
:10070800B182039B1EA901EB830446AD4FEA83091E
:100718004046F7180AEB8301B8F1000FDFEDAB7A1A
:1007280009DBA3465346F3EC016A3BED017A8B42A1
:10073800E6EE877AF7D10130B842E5EC017A04F1A8
:100748000404E9D10DF1280B0BEB8603CDE9062E45
:10075800043B9FEDA09ADFED9E8A059804930AEB6F
:10076800090446AF0BEB86090096CDF820C05AABBA
:1007780003EB8603002E13ED140A4FEA860515DDF8
:100788007B195A4660EE097AB0EE407AFDEEE77AB8
:1007980073ED016AF8EEE77ABB42A7EEE87A37EE26
:1007A800A60ABDEEC77AA2EC017AEBD1019000F05F
:1007B80085FAF4EE007AB0EE408A20EE270A00F0BF
:1007C80071FBF2EE007AA0EE678A01980028FDEE30
:1007D800C89AF8EEE97A38EE678A6CDD06F1FF3ED2
:1007E800C0F108035BF82E2042FA03FC0CFA03F36D
:1007F800D21AC0F1070119EE903A4BF82E200A419F
:100808006344002A09EE903A00F3F080B5EE408A7E
:10081800F1EE10FA40F09D80009B9E420ADD5D4497
:10082800002355F8041D4D4543EA0103F9D1002B77
:1008380040F0F280009B013B5BF82330002B40F036
:10084800E780049B012153F8042D0131002AFAD0D6
:10085800731C31449C46029D039A05EB030E0EF16E
:10086800804E699D32440EF1FF3E07EB83061EABB6
:1008780005EB8E0E03EB8205DEED017AF8EEE77AE2
:10088800B8F1000F0EF1040EE5EC017ADFED4F7AB6
:1008980009DB2A465346F3EC016A32ED017AA3429A
:1008A800E6EE877AF7D10CF1010C6145E6EC017AA6
:1008B800E2DA0E465BE740F08F80731E5BF8232078
:1008C800D211002AA2DD19EE903A002E03F101039D
:1008D80009EE903A40F3D48159464FF0000E51F892
:1008E800043B002B6AD0C3F5807341F8043C04E054
:1008F8000B68C3F1FF0341F8043B0EF1010E764586
:10090800F6DC01239E4600280ADD012878D002285B
:1009180006D1711E5BF8213003F03F0C4BF821C063
:10092800022A7FF473AFB7EE000A734630EE488AA6
:10093800002B3FF46BAF0992019000F0BFF938EE3D
:10094800408A0198099AB5EE408AF1EE10FA3FF410
:1009580063AF9246DDE9062EDDF820C00196AEEBC6
:100968000C00B0EE480A009E009200F0A7F9DFEDF7
:10097800186AB4EEE60AF1EE10FADDE90023F0EEAB
:10098800407AC0F250819FED137A059920EE077ADC
:100998000831BDEEC77A0591B8EEC77A5C1CE7EE60
:1009A800667ABDEEC77AFDEEE77A17EE901A4BF835
:1009B800231017EE103A4BF8243046E00EF1010EE2
:1009C800B6458CDB9E469EE73844000800000000D0
:1009D800000080430000803BF6EE007AB4EEE78A20
:1009E800F1EE10FA80F2988000220FE70133002E12
:1009F80009EE903A3FF770AF002301289E4686D152
:100A0800711E5BF8213003F07F0C4BF821C087E79B
:100A1800731C9C4619461EE733469246DDE90512CB
:100A28005C1EA1F108005BF82410009E059061B9D6
:100A380003F18043013B0BEB8303014653F8040D9C
:100A4800013C08390028F9D0059105980092B7EEC5
:100A5800000A00F033F9002C009AB0EE407AC0F298
:100A68000581601C46AD5FED256A81000BEB8003B4
:100A780005EB800073ED017AF8EEE77A5B4567EEE7
:100A8800877A27EE267A60ED017AF3D10DF1C8084E
:100A98000B1F46A8C718C646A44600259146002E37
:100AA80073DB844ADFED847A3846002301E0AB42E9
:100AB80008DCF2EC016AB0EC017A01339E42E6EE02
:100AC800877AF4DA0CF1FF3CBCF1FF3FEEEC017AD7
:100AD80005F10105A7F10407E1D1689B022B4A46FD
:100AE80056DC002B2EDC0ED1DFED737A414431ED5C
:100AF800017A414577EE877AF9D15346002B40F0C9
:100B0800AE80C2ED007A19EE903A03F007005BB0B0
:100B1800BDEC048BBDE8F08F19EE903A002E03F17E
:100B2800010309EE903AC8BF02223FF7D5AEF7EEAF
:100B3800007A37EEC88A022268E600234FF0080ED2
:100B48000293BBE59FED5C7A414471ED017A414522
:100B580037EE277AF9D1DDED327A534677EEC77A48
:100B6800002B75D182ED007A64B133A90123B1EC71
:100B7800017A01339C4277EE877AF8DA53460BB153
:100B8800F1EE677AC2ED017ABDE7DFED4B7A99E7BE
:100B9800689B032BB7D1002C7ED008EB840595ED1C
:100BA800007AA0002B46294671ED017AF0EE476ADB
:100BB80037EE277A414577EEC77A81ED007A77EEEE
:100BC800A67AC1ED017AEFD1012C65D095ED007AB6
:100BD80008F1040173ED017AF0EE476A37EE277ADF
:100BE800994277EEC77A83ED007A77EEA67AC3ED5D
:100BF800017AEFD1031DDFED307A434408F108088C
:100C080033ED017A984577EE877AF9D15346DDEDD1
:100C1800326A9DED337A73B9C2ED006A82ED017ACA
:100C2800C2ED027A6FE7FDEEC07A1C4617EE901A05
:100C38004BF8231009E7F1EE666AB1EE477AF1EE58
:100C4800677AC2ED006A82ED017AC2ED027A5AE74C
:100C5800B1EE477A82ED007A002C86D190E7F1EE6A
:100C6800677A4EE7039B4FEA83096BE5689B022B83
:100C78000EDC002B13DC7FF446AFDFED0F7A3CE788
:100C8800022A7FF4C3ADF7EE007A37EEC88ABDE5D5
:100C9800689B032B7FF437AFDFED077AB6E753463F
:100CA800DDED327A13B9002313606BE74FF0004390
:100CB800136065E7444400080000000010EE103A95
:100CC80033F000411A4627D0B1F1FF4F21D213F07B
:100CD800FF4F22D1DFED2B7A2B4A60EE277A904224
:100CE80017EE903A33DB4CF2503CC3F3C7516045E2
:100CF8001A46A1F1190116DDDFED247ADFED246A29
:100D0800002BB0EE677AB8BFF0EE667A27EE870A56
:100D1800704730EE000A704770474CF2503C60450F
:100D28004FEAD151E8DC0144FE29E5DC002915DC55
:100D380011F1160F19DB193122F0FF4242EAC152B4
:100D480007EE902A9FED130A27EE800A7047DFED21
:100D5800127A07EE103A27EE270A704722F0FF4270
:100D680042EAC15300EE103A7047DFED0B7ADFED2F
:100D78000B6A002BB0EE677AB8BFF0EE667A27EE02
:100D8800870A70470000004CB03CFFFFCAF2497167
:100D9800CAF249F1000000336042A20D6042A28D00
:100DA80010EE103A23F00043B3F1485F2CD2FDEE69
:100DB800C07A17EE903A002B60D060EE007A9FED73
:100DC800317A9FED315ADFED315A9FED316ADFED0F
:100DD800316AA7EE875A9FED307AE7EE855AA7EE7B
:100DE800A56AA7EE867AE7EE876A67EEA66A60EEDE
:100DF800C00AB6EE007AE7EEA60AB7EE000AD7EE0A
:100E0800870A30EE600A704760EE007A9FED1D7A1F
:100E18009FED1D5ADFED1D5A9FED1D6ADFED1D6A1E
:100E28001E4AA7EE875A93429FED1B7AE5EE275A92
:100E3800A5EEA76AA6EE277AE7EE276A66EEA76A06
:100E4800D5D9174A934214D803F17F4307EE103AD5
:100E5800B7EE006A36EE476A60EEC00AF6EE005A50
:100E680097EEA57AE7EEA60A37EE607A36EE470ADD
:100E78007047B6EE076AB5EE027AEDE7B7EE000AFC
:100E8800704700BF4ED747ADF6740F317CF293B46C
:100E9800010DD037ABAA2A3D610BB6BA9999993E94
:100EA8000000483F10EE102AC2F3C7537F3B162BB1
:100EB80022F0004129DC002B104618DB1A491941A1
:100EC8000A4221D0DFED197A70EE277AF5EEC07A62
:100ED800F1EE10FA18DD002A04DA4FF4000242FAA3
:100EE80003F3184420EA010300EE103A7047DFEDDF
:100EF8000F7A70EE277AF5EEC07AF1EE10FA03DD7C
:100F0800002A08DB9FED0A0A7047B1F1FF4FFBD3B7
:100F180030EE000A7047DFED077A0029BFEE000ABD
:100F280008BFB0EE670A7047FFFF7F00CAF2497139
:100F3800000000000000008053B94AB9002908BF2A
:100F480000281CBF4FF0FF314FF0FF3000F06AB9A6
:100F5800ADF1080C6DE904CE00F006F8DDF804E008
:100F6800DDE9022304B070472DE9F047089D0E46DD
:100F780004460F46002B4AD194468C45B2FA82F2B9
:100F880060D942B1C2F12003974020FA03F30CFA6A
:100F980002FC1F4394404FEA1C4E1FFA8CF6B7FB25
:100FA800FEF1230C0EFB117743EA074301FB06F021
:100FB80098420AD91CEB030301F1FF3780F0158131
:100FC800984240F21281023963441B1AA4B2B3FB5F
:100FD800FEF00EFB103344EA034400FB06F6A6427B
:100FE8000AD91CEB040400F1FF3380F00081A6420B
:100FF80040F2FD806444023840EA0140A41B00210D
:101008001DB1D4400023C5E90043BDE8F0878B42F9
:1010180005D90DB1C5E9000100210846F5E7B3FA85
:1010280083F1002946D1B34202D3824200F2F5800F
:10103800841A66EB030201201746002DE5D0C5E9A6
:101048000047E2E7002A40F09380A1EB0C034FEA47
:101058001C471FFA8CFE0121B3FBF7F607FB16307D
:10106800230C43EA00430EFB06F0984208D91CEB18
:10107800030306F1FF3802D2984200F2D0804646B8
:101088001B1AA4B2B3FBF7F007FB103344EA03447E
:101098000EFB00FEA64508D91CEB040400F1FF3343
:1010A80002D2A64500F2B6801846A4EB0E0440EA28
:1010B8000640A5E7C1F120078B4022FA07FC4CEA5D
:1010C800030C06FA01FE20FA07F426FA07F344EAAD
:1010D8000E0400FA01F84FEA1C404FEA1449B3FB2A
:1010E800F0FE1FFA8CF600FB1E3349EA03430EFBA1
:1010F80006F9994502FA01F20BD91CEB03030EF12C
:10110800FF3A80F08580994540F28280AEF1020E68
:101118006344A3EB0909A4B2B9FBF0F300FB1399EC
:1011280044EA094403FB06F6A64208D91CEB04046A
:1011380003F1FF3068D2A64266D9023B644443EA11
:101148000E40A41BA0FB02E6B4427346B14652D33C
:101158004FD05DB1B8EB030264EB090404FA07F75A
:1011680022FA01F31F43CC40C5E9007400214CE783
:10117800C2F1200120FA01F30CFA02FC26FA01F16F
:10118800964033434FEA1C471FFA8CFEB1FBF7F039
:1011980007FB1016190C41EA064100FB0EF68E42B9
:1011A80004FA02F408D91CEB010100F1FF382DD232
:1011B8008E422BD902386144891B9BB2B1FBF7F6EA
:1011C80007FB161143EA014306FB0EF1994208D9C1
:1011D8001CEB030306F1FF3814D2994212D9023EE0
:1011E80063445B1A46EA004136E73946EDE618469D
:1011F80002E7F045ADD2BEEB020366EB0C06013800
:10120800B146A6E74646ECE7034698E74046D3E7EB
:10121800D6467EE76444023847E708460DE7023EB3
:1012280063442DE7704700BF72B6FEE700B595B07E
:101238003022002108A8FFF717F80023039304932E
:101248000593069307930193204A116C41F080514E
:101258001164126C02F080520192019A02931C4BA5
:101268001A6842F440421A601B6803F44043029330
:10127800029B012308934FF48033099302230E93B2
:101288004FF480030F93072310934FF4A87311931F
:10129800042312930823139308A800F0C9FD88B902
:1012A8000F23039302230493002305934FF48052E2
:1012B80006920793032103A801F024F820B915B07A
:1012C8005DF804FBFFF7B0FFFFF7AEFF0038024000
:1012D8000070004008B501F05FFDFFF7A7FF00F0C0
:1012E8001FF800F001F900F02BF900F07FF900F089
:1012F80011FA00F0CBFA00F007FB00F089F8074C70
:1013080001220221204601F099FA012204212046F7
:1013180001F094FA00F0DCFBFEE700BF0004024095
:10132800F0B58BB0002405940694079408940994AA
:101338000194334B1A6B42F004021A631A6B02F0E1
:1013480004020192019A02941A6B42F080021A6315
:101358001A6B02F080020292029A03941A6B42F00E
:1013680001021A631A6B02F001020392039A0494B1
:101378001A6B42F002021A631B6B03F00203049318
:10138800049B204E22460221304601F057FA1E4D9A
:10139800224641F20611284601F050FA4FF48043E4
:1013A80005930694079405A9184801F063F90223E8
:1013B8000593012706970794089405A9304601F07C
:1013C80059F940F20C7305930694079405A9304621
:1013D80001F050F941F20613059306970794089413
:1013E80005A9284601F046F94FF40C7305930694B5
:1013F800079405A9284601F03DF90BB0F0BD00BFE0
:101408000038024000000240000402400008024088
:1014180000B585B000230093019302930393154808
:10142800154A02604FF4803242608360036103769C
:1014380080F82030C362114A8262C3600122C2610F
:1014480080F83030426100F0F1FB68B9082300935E
:1014580001230193002302936946064800F012FC19
:1014680028B905B05DF804FBFFF7DEFEEEE7FFF7ED
:10147800DBFEF6E728000020002001400100000FF5
:1014880000B589B00023039304930593069307934B
:10149800026803F1804303F590339A4202D009B001
:1014A8005DF804FB0021019103F58C335A6C42F47A
:1014B80080725A645A6C02F480720192019A029105
:1014C8001A6B42F002021A631B6B03F002030293C9
:1014D800029B012303930323049303A9014801F00A
:1014E800C9F8DCE70004024010B582B0002400947B
:1014F800124B1A6B42F400121A631A6B02F40012B0
:101508000092009A01941A6B42F480021A631B6BD2
:1015180003F480030193019B22462146102001F029
:10152800EDFB102001F0FAFB224621463A2001F09B
:10153800E5FB3A2001F0F2FB02B010BD0038024092
:1015480008B50B480B4B03600B4B436000238360CB
:10155800C3604FF48042026143618361C3610362E7
:1015680001F05AFC00B908BDFFF75EFEFBE700BFBB
:101578007000002000540040A086010030B589B0FA
:101588000023039304930593069307930268144B6F
:101598009A4201D009B030BD00250195114C236B4A
:1015A80043F002032363236B03F002030193019BBF
:1015B800C02303931223049303230693042307935E
:1015C80003A9094801F056F80295236C43F4001367
:1015D8002364236C03F400130293029BDAE700BF31
:1015E80000540040003802400004024008B50C488E
:1015F8000C4B03604FF400734360002383600522A3
:10160800C26003614BF6803242618361C361036249
:1016180001F0E0FC00B908BDFFF706FEFBE700BFDC
:10162800240100200030014030B58FB00023099319
:101638000A930B930C930D930393049305930693CA
:101648000793089302682E4B9A4201D00FB030BD21
:101658000446012303934FF4C073059308230493AE
:101668000523069303A800F013FF002841D10025A5
:101678000195244B5A6C42F480525A645A6C02F415
:1016880080520192019A02951A6B42F001021A6384
:101698001B6B03F001030293029BB02309930223FF
:1016A8000A930B950C9505230D9309A9164800F08C
:1016B800E1FF1648164B03604FF0806343604023F8
:1016C8008360C5604FF4806303614FF40063436136
:1016D8004FF4005383614FF48073C3614FF4403378
:1016E8000362456201F02CF930B9084BA3639C638F
:1016F800ACE7FFF799FDBAE7FFF796FDF5E700BFFE
:10170800003001400038024000000240C4000020C0
:101718004064024008B50D480D4B03604FF48273D6
:10172800436000238360C360036143614FF4007228
:101738008261C3610362436283620A23C36201F068
:10174800DDFF00B908BDFFF76FFDFBE76C01002066
:101758000038004000B589B0002303930493059333
:10176800069307930268154B9A4202D009B05DF8B8
:1017780004FB0021019103F500331A6C42F4804206
:101788001A641A6C02F480420192019A02911A6B4F
:1017980042F002021A631B6B03F002030293029BDE
:1017A8004FF4604303930223049303230693052312
:1017B800079303A9024800F05DFFD7E7003800400F
:1017C800000402400368B3F1804F00D0704710B5A1
:1017D80082B0044600230193144A116C41F00101C0
:1017E8001164126C02F001020192019A1048114A28
:1017F80002604FF0C062426040228260C3604FF4D2
:10180800806202614FF4805242614FF480428261EB
:10181800C3610362436201F093F820B9044B636229
:101828009C6302B010BDFFF7FFFCF7E700380240E9
:10183800C40100208860024000B587B000230193EE
:1018480002930393049305930368B3F1804F02D086
:1018580007B05DF804FB002300930A4B1A6B42F0B3
:1018680001021A631B6B03F001030093009B012321
:10187800019302220292059301A9034800F0FAFE9F
:10188800E6E700BF003802400000024000B58BB018
:1018980000230893099301930293039304930593F8
:1018A8000693079317484FF08042026043608360B5
:1018B8004FF0FF32C2600361836102F04DF8C0B996
:1018C80000230893099308A90E4802F00DF998B966
:1018D80060230193002202920392059201A909480C
:1018E80002F094F858B90748FFF7A6FF0BB05DF867
:1018F80004FBFFF799FCE3E7FFF796FCE8E7FFF73F
:1019080093FCF0E72402002008B50B484FF0A043F1
:101918000360042303710222C2710023837142729F
:101928008372C37203738373C37302F01BF900B924
:1019380008BDFFF779FCFBE76C02002030B589B0E1
:101948000023039304930593069307930368B3F165
:10195800A04F01D009B030BD00250195124C236B72
:1019680043F001032363236B03F001030193019BFD
:101978004FF4C053039302230493032306930A23CB
:10198800079303A9094800F075FE636B43F08003D1
:1019980063630295636C43F480436364636C03F48C
:1019A80080430293029BD5E70038024000000240C2
:1019B800FEE7FEE7FEE7FEE7FEE770477047704781
:1019C80008B501F003FA08BD08B5024801F054F85B
:1019D80008BD00BFC401002008B5024801F04CF85A
:1019E80008BD00BFC400002082B0002100910B4B4D
:1019F8005A6C42F480425A645A6C02F48042009253
:101A0800009A01911A6C42F080521A641B6C03F020
:101A180080530193019B02B0704700BF0038024019
:101A280080004FEA114C084B23F810C000F1010C5C
:101A380023F81C10811C4FEA124C23F811C0033004
:101A480023F81020704700BFD00E002038B50025BD
:101A58002C4604E00A462846FFF7E2FF0135B5F5B3
:101A6800F07F08D2044B53F824100134B4F5F07F0A
:101A7800F0D30024EEE738BD5007002010B500244D
:101A880019E007EE904AF8EE677A9FED0D7A67EE57
:101A9800877A9FED0C0A87EE800AFEF737FCDFEDA8
:101AA8000A7A20EE270ABDEEC00A084B10EE102A6B
:101AB80043F824200134B4F5F07FE2D310BD00BF11
:101AC800DB0FC9400000F043CDCC4C4D500700203F
:101AD80008B5FFF7D3FFFFF7B9FF4FF47072044959
:101AE800044801F045FB00B908BDFFF79DFBFBE783
:101AF800D00E0020240100204A4B5A6822F44032BC
:101B08005A605A6841680A435A600268536823F465
:101B18008073536002685368016943EA0123536084
:101B28000268536823F04073536002685368816801
:101B38000B4353600268936823F400639360026860
:101B48009368C1680B439360826A374B9A4257D0B7
:101B58000268936823F07063936002689368816AEF
:101B68000B4393600268936823F0405393600268C4
:101B78009368C16A0B4393600268936823F0020379
:101B8800936002689368017E43EA4103936090F88A
:101B98002030002B3FD00268536843F40063536041
:101BA8000268536823F46043536001684B68426AD3
:101BB800013A43EA42334B600268D36A23F4700364
:101BC800D3620168CB6AC269013A43EA0253CB6225
:101BD8000268936823F4007393600268936890F82E
:101BE800301043EA412393600268936823F48063CA
:101BF800936002689368416943EA81239360704760
:101C08000268936823F0706393600268936823F016
:101C180040539360B0E70268536823F4006353604D
:101C2800CAE700BF002301400100000F38B310B518
:101C38000446036C43B1236C13F0100F0BD0012042
:101C4800002384F83C3010BDFFF71AFC00236364BE
:101C580084F83C30EFE7236C23F4885323F0020325
:101C680043F0020323642046FFF746FF0020606428
:101C7800236C23F0030343F001032364E0E701200E
:101C88007047000030B482B00022019290F83C20E6
:101C9800012A00F0C0800346012280F83C200A682F
:101CA800092A40D90468E06892B202EB42021E3A5F
:101CB8004FF0070C0CFA02F220EA0202E2601C68FC
:101CC800E0680A8802EB42021E3A8D6805FA02F2C1
:101CD8000243E2604A68062A3CD81C68606B02EB43
:101CE8008202053A4FF01F0C0CFA02F220EA0202B7
:101CF80062631C68606B4A6802EB8202053AB1F8BD
:101D080000C00CFA02F2024362631868434A904228
:101D180050D01868414A904259D0002083F83C00BE
:101D280002B030BC70470468206992B202EB4202EC
:101D38004FF0070C0CFA02F220EA020222611C683A
:101D480020690A8802EB42028D6805FA02F2024312
:101D58002261BFE70C2A16D81D68286B02EB8202A5
:101D6800233A1F2404FA02F220EA02022A631D68B9
:101D7800286B4A6802EB8202233A0C8804FA02F2C2
:101D880002432A63C1E71D68E86A02EB8202413A0E
:101D98001F2404FA02F220EA0202EA621D68E86AD5
:101DA8004A6802EB8202413A0C8804FA02F20243C2
:101DB800EA62AAE70A68122AABD1194A506820F4E5
:101DC80000005060506840F480005060A1E70A6845
:101DD8001448824201D0112A9FD1114A506820F438
:101DE80080005060506840F40000506009680D4A57
:101DF800914292D10C4A12680C49A1FB0212920C32
:101E080002EB820252000192019A002A85D0019ABF
:101E1800013A0192F8E7022082E700BF0020014062
:101E280000230140120000100800002083DE1B433D
:101E3800002800F0E08170B582B00446036813F012
:101E4800010F3BD09F4B9B6803F00C03042B2CD055
:101E58009C4B9B6803F00C03082B21D06368B3F5F7
:101E6800803F4FD0B3F5A02F52D0964B1A6822F47A
:101E780080321A601A6822F480221A606368002B84
:101E880050D000F0AFFF05468E4B1B6813F4003F9F
:101E980014D100F0A7FF401B6428F5D90320B1E155
:101EA800884B5B6813F4800FD8D0864B1B6813F4FB
:101EB800003F03D06368002B00F09F81236813F074
:101EC800020F54D07F4B9B6813F00C0F3ED07D4B14
:101ED8009B6803F00C03082B33D0E368002B68D011
:101EE800794B01221A6000F07DFF0546754B1B688F
:101EF80013F0020F54D100F075FF401B0228F5D9EA
:101F080003207FE16F4A136843F480331360B5E719
:101F18006C4B1A6842F480221A601A6842F48032C4
:101F28001A60ABE700F05EFF0546664B1B6813F4CA
:101F3800003FC3D000F056FF401B6428F5D90320AA
:101F480060E1604B5B6813F4800FC6D15D4B1B6882
:101F580013F0020F03D0E368012B40F05081594A77
:101F6800136823F0F803216943EAC1031360236867
:101F780013F0080F42D063696BB3534B0122C3F8C7
:101F8800802E00F02FFF05464E4B5B6F13F0020FBB
:101F980034D100F027FF401B0228F5D9032031E196
:101FA800484A136823F0F803216943EAC103136020
:101FB800DDE7454B00221A6000F014FF0546414B4F
:101FC8001B6813F0020FD2D000F00CFF401B022850
:101FD800F5D9032016E13C4B0022C3F8802E00F00F
:101FE80001FF0546374B5B6F13F0020F06D000F078
:101FF800F9FE401B0228F5D9032003E1236813F0FA
:10200800040F77D02F4B1B6C13F0805F33D1002364
:1020180001932C4B1A6C42F080521A641B6C03F02B
:1020280080530193019B0125284B1B6813F4807F83
:1020380023D0A368012B34D0052B38D0214B1A6F3D
:1020480022F001021A671A6F22F004021A67A368C5
:10205800002B3DD000F0C6FE06461A4B1B6F13F04E
:10206800020F46D100F0BEFE801B41F28833984231
:10207800F3D90320C6E00025D6E7144A136843F4D1
:102088008073136000F0AEFE0646104B1B6813F415
:10209800807FCED100F0A6FE801B0228F5D9032050
:1020A800B0E0084A136F43F001031367CFE7054B0D
:1020B8001A6F42F004021A671A6F42F001021A6797
:1020C800C5E700BF003802400000474200700040EA
:1020D80000F088FE0646524B1B6F13F0020F08D023
:1020E80000F080FE801B41F288339842F3D9032028
:1020F80088E0EDB9A369002B00F08380484A926814
:1021080002F00C02082A51D0022B17D0454B0022AE
:102118001A6600F067FE0446414B1B6813F0007F07
:1021280042D000F05FFE001B0228F5D9032069E0C9
:102138003B4A136C23F080531364DBE7394B0022CE
:102148001A6600F04FFE0546354B1B6813F0007FFA
:1021580006D000F047FE401B0228F5D9032051E0C5
:10216800E369226A1343626A43EA8213A26A520845
:10217800013A43EA0243E26A43EA0263284A5360A7
:10218800284B01221A6600F02DFE0446244B1B68DA
:1021980013F0007F06D100F025FE001B0228F5D9B8
:1021A80003202FE000202DE000202BE0012B2BD076
:1021B8001B4B5B6803F48001E269914226D103F06E
:1021C8003F02216A8A4223D1616A47F6C0721A40E7
:1021D800B2EB811F1ED103F44031A26A5208013AC2
:1021E800B1EB024F18D103F07063E26AB3EB026FF0
:1021F80014D1002006E001207047012002E00120F0
:1022080000E0002002B070BD0120FBE70120F9E7E3
:102218000120F7E70120F5E70120F3E70120F1E7C6
:10222800003802400000474208B5334B9B6803F072
:102238000C03042B5BD0082B5BD12F4B5A6802F0A0
:102248003F025B6813F4800F2CD02B4B5868C0F307
:1022580088104FEA401CBCEB000C6EEB0E0E4FEAE8
:102268008E1343EA9C634FEA8C11B1EB0C0163EBCC
:102278000E03DB0043EA5173C90011EB000C43F174
:102288000003590200234FEA4C2041EADC51FEF7D3
:1022980053FE194B5B68C3F3014301335B00B0FB8A
:1022A800F3F008BD144B5868C0F388104FEA401C7F
:1022B800BCEB000C6EEB0E0E4FEA8E1343EA9C63E8
:1022C8004FEA8C11B1EB0C0163EB0E03DB0043EA20
:1022D8005173C90011EB000C43F10003990200236C
:1022E8004FEA8C2041EA9C51FEF726FED1E70348CD
:1022F800D7E70348D5E700BF0038024000127A004C
:102308000024F400002800F09B8070B50D460446B8
:102318004F4B1B6803F007038B4208D2CBB24C4AE1
:102328001370136803F007038B4240F08B80236817
:1023380013F0020F17D013F0040F04D0454A936826
:1023480043F4E0539360236813F0080F04D0414A24
:10235800936843F4604393603E4A936823F0F00324
:10236800A1680B439360236813F0010F32D06368B0
:10237800012B21D09A1E012A25D9364A126812F05B
:10238800020F61D033498A6822F0030213438B603D
:1023980000F028FD06462F4B9B6803F00C0362688B
:1023A800B3EB820F16D000F01DFD801B41F288337D
:1023B8009842F0D9032042E0264A126812F4003FFE
:1023C800E0D101203BE0234A126812F0007FD9D106
:1023D800012034E01E4B1B6803F00703AB4207D90A
:1023E800EAB21B4B1A701B6803F00703AB422DD1EE
:1023F800236813F0040F06D0164A936823F4E053B9
:10240800E1680B439360236813F0080F07D0114A63
:10241800936823F46043216943EAC1039360FFF79B
:1024280003FF0C4B9B68C3F303130B4AD35CD840E0
:102438000A4B18600A4B186800F088FC002070BD31
:10244800012070470120FAE70120F8E70120F6E7AC
:10245800003C024000380240804400080800002088
:1024680004000020014B1868704700BF08000020D6
:1024780008B5FFF7F7FF044B9B68C3F38223034AB1
:10248800D35CD84008BD00BF00380240784400083B
:1024980030B583B00446036813F0050F0ED12368E6
:1024A80013F0020F38D1236813F0080F00F09D8055
:1024B800227D4F4BC3F8E021002097E04D4B0022CE
:1024C8009A6600F08FFC05464B4B1B6813F0006FB3
:1024D80006D000F087FC431B022BF5D9032085E0CA
:1024E8006368A26843EA8213E26843EA0273424AD5
:1024F800C2F884303F4B01229A6600F073FC05460F
:102508003D4B1B6813F0006FC9D100F06BFC401BFA
:102518000228F5D9032069E000230193364B1A6C91
:1025280042F080521A641B6C03F080530193019BA4
:10253800324A136843F48073136000F053FC054675
:102548002E4B1B6813F4807F06D100F04BFC431B15
:10255800022BF5D9032049E0274B1B6F13F4407376
:1025680014D0226902F440729A420FD0224B1A6F9B
:1025780022F440721F490120C1F8400E0020C1F822
:10258800400E1A671B6F13F0010F12D1236903F471
:102598004072B2F5407F1DD0174A936823F4F813B0
:1025A800936015490B6F2269C2F30B0213430B6743
:1025B80079E700F017FC05460F4B1B6F13F0020F6D
:1025C800E4D100F00FFC401B41F288339842F3D964
:1025D80003200BE008498A6822F4F81223F07043BC
:1025E80023F4407313438B60DBE7002003B030BD56
:1025F8000010474200004742003802400070004087
:10260800012801D000207047164B9B6813F4000383
:1026180002D02BB314487047124B5B6813F4800F39
:1026280015D0104BD3F8842002F03F020F4BB3FBB8
:10263800F2F30C4AD2F88400C0F3881003FB00F0D0
:10264800D2F88430C3F30273B0FBF3F07047054B44
:10265800D3F8842002F03F02054BB3FBF2F3E8E71E
:1026680000207047003802400080BB0000127A004A
:102678000024F40000230F2B00F2D78070B582B03D
:1026880065E085684FEA430E032404FA0EF425EA50
:102698000405CC6804FA0EF42C438460446824EAE8
:1026A80002044A68C2F300129A40224342605CE086
:1026B800DC08083450F8242003F00705AD004FF07B
:1026C8000F0E0EFA05FE22EA0E0E0A69AA4042EA29
:1026D8000E0240F824205CE0042200E0002202FA06
:1026E8000EF22A430234514D45F82420504A94688A
:1026F8006FEA0C0224EA0C054E6816F4801F01D01C
:102708004CEA04054A4CA560E46802EA04054E68F0
:1027180016F4001F01D04CEA0405454CE5606468D6
:1027280002EA04054E6816F4003F01D04CEA04059D
:102738003F4C6560246822404D6815F4803F01D005
:102748004CEA04023A4C226001330F2B6BD8012269
:102758009A400C6804EA020C32EA0404F4D14C688A
:1027680004F00304013C012C8BD94A6802F00302EF
:10277800032A09D0C4685D000322AA4024EA02049F
:102788008A68AA402243C2604A6802F00302022A09
:102798008ED004684FEA430E032202FA0EF224EAAE
:1027A80002044A6802F0030202FA0EF222430260AF
:1027B8004A6812F4403FC7D0002201921D4A546C67
:1027C80044F480445464526C02F480420192019AA9
:1027D8009C08A51C154A52F8255003F0030E4FEA31
:1027E8008E0E0F2202FA0EF225EA0205124A9042D4
:1027F8003FF474AF02F5806290420ED002F5806219
:1028080090420CD002F5806290420AD002F58062B4
:1028180090423FF461AF072261E701225FE702229D
:102828005DE703225BE702B070BD704700380140E6
:10283800003C014000380240000002400AB18161BA
:10284800704709048161704730B405682C6824F426
:1028580080242C60046863608368402B05D003687B
:1028680099600368DA6030BC704703689A6003684F
:10287800D960F8E710B40368D9B210390A4AA2FB44
:1028880001421209094CA25CC2655F2907D96FF39E
:10289800090304338365806D5DF8044B70476FF35B
:1028A80009038365F7E700BFABAAAAAA704400082A
:1028B800836A826992B9012B0AD0022B02D00BB12C
:1028C80000207047C36A13F0807F28D1002070472A
:1028D800C36AB3F1C07F24D000207047B2F5005F0F
:1028E80009D0022B25D9032B25D1C36A13F0807F89
:1028F80023D100207047032B03D8DFE803F014042A
:10290800140A00207047C36A13F0807F0DD100209D
:102918007047C36AB3F1C07F09D000207047012017
:10292800704701207047012070470120704701203F
:102938007047012070470020704701207047000051
:1029480070B5044600F04EFA002C5BD00546022311
:1029580084F83530002384F834302268136823F073
:102968000103136023681A6812F0010F0AD000F0FF
:1029780039FA431B052BF5D920236365032084F816
:10298800350070BD1A68204911406268A06802438A
:10299800E06802432069024360690243A069024378
:1029A800E0690243206A02430A43616A04291ED08F
:1029B8001A602668756925F00705636A1D43042BAC
:1029C80007D1A36A1D43E36A1BB12046FFF770FFD6
:1029D80090B975612046FFF74DFFE26D3F239340A4
:1029E800836000206065012384F83530C9E7E16A17
:1029F800206B01430A43DBE740236365012084F829
:102A08003500BEE70120BCE73F8010F038B504462A
:102A1800856D90F8340001282BD0012084F834000B
:102A280094F83500C0B2012804D0002384F834306B
:102A3800022038BD022084F8350000206065204659
:102A4800FFF702FFE26D3F239340AB6022681368F3
:102A580043F016031360236C23B12268136843F014
:102A6800080313602268136843F001031360002011
:102A7800DFE70220DDE70000F0B583B0044600235D
:102A88000193724B1D68724BA3FB0535AD0A876D28
:102A98003E68C26D08239340334210D003681A6819
:102AA80012F0040F0BD01A6822F004021A60C26DEB
:102AB80008239340BB60436D43F001034365E26D17
:102AC80001239340334209D02268526912F0800FE3
:102AD80004D0BB60636D43F002036365E26D0423B9
:102AE8009340334209D02268126812F0020F04D0D2
:102AF800BB60636D43F004036365E26D102393408C
:102B0800334224D02268126812F0080F1FD0BB602D
:102B180023681A6812F4802F0DD01B6813F4002F55
:102B280004D1236C9BB12046984710E0A36C73B185
:102B3800204698470BE01A6812F4807F03D11A6880
:102B480022F008021A60236C0BB120469847E26D08
:102B580020239340334255D02268126812F0100F98
:102B680050D0BB6094F83530DBB2052B0ED023680B
:102B78001A6812F4802F33D01B6813F4002F2AD15F
:102B8800636C002B3ED0204698473BE022681368D0
:102B980023F0160313602268536923F080035361FE
:102BA800236CA3B12268136823F008031360E26D55
:102BB8003F239340BB60012384F83530002384F819
:102BC8003430236D002B3FD0204698473CE0A36C5F
:102BD800002BE7D1EBE7E36BA3B12046984711E060
:102BE8001A6812F4807F09D11A6822F010021A605C
:102BF800012384F83530002384F83430E36B0BB1BB
:102C080020469847636DFBB1636D13F0010F17D031
:102C1800052384F835302268136823F00103136014
:102C2800019B01330193AB4204D823681B6813F05E
:102C3800010FF5D1012384F83530002384F83430AE
:102C4800E36C0BB12046984703B0F0BD08000020A4
:102C5800B5814E1B002807DB00F01F024009012345
:102C68009340024A42F82030704700BF00E100E07C
:102C7800002808DB0901C9B200F1604000F5614095
:102C880080F80013704700F00F000901C9B2014B2A
:102C98001954704714ED00E000B500F00700C0F1CA
:102CA800070CBCF1040F28BF4FF0040C031D062BC2
:102CB8000FD9C31E4FF0FF3E0EFA0CF021EA0001B7
:102CC80099400EFA03FE22EA0E0241EA02005DF87C
:102CD80004FB0023EEE70000074AD36823F4E0630F
:102CE8001B041B0C000200F4E060034343F0BF63C5
:102CF80043F40033D360704700ED00E010B504469C
:102D0800054BD868C0F30220FFF7C6FF01462046EE
:102D1800FFF7AEFF10BD00BF00ED00E008B5FFF7FC
:102D280099FF08BD0138B0F1807F0BD24FF0E02346
:102D38005861054AF02182F8231000209861072283
:102D48001A6170470120704700ED00E010B5044695
:102D58000E4B1A784FF47A73B3FBF2F30C4A1068EF
:102D6800B0FBF3F0FFF7DEFF68B90F2C01D90120A3
:102D78000AE0002221464FF0FF30FFF7BFFF054B66
:102D88001C60002000E0012010BD00BF00000020F2
:102D9800080000200400002008B50B4B1A6842F414
:102DA80000721A601A6842F480621A601A6842F463
:102DB80080721A600320FFF78FFF0F20FFF7C6FF0E
:102DC800FEF712FE002008BD003C0240034A1168CD
:102DD800034B1B780B441360704700BFD01D0020C5
:102DE80000000020014B1868704700BFD01D00206C
:102DF80038B50446FFF7F6FF0546B4F1FF3F02D0A9
:102E0800044B1B781C44FFF7EDFF401BA042FAD38C
:102E180038BD00BF00000020002800F0CC8070B54D
:102E2800044690F83D30002B77D0242384F83D30B9
:102E38002268136823F0010313602268136843F4BF
:102E4800004313602268136823F400431360FFF7FC
:102E58000FFB62685A4B9A4264D85A4B98428CBF0F
:102E680000230123002B40F0A8805749A1FB003123
:102E78008B0C25686A6822F03F0242EA91426A6038
:102E880021680A6A22F03F0266684D4DAE424FD86B
:102E9800013313430B622168CA6922F44F4222F0BE
:102EA800FF026568464B9D424CD8431E6D00B3FB3C
:102EB800F5F3013340F6FC70034278D0C3F30B03FB
:102EC8001A43CA6121680B6823F0C003E269206ACB
:102ED800024313430B6021688B6823F4034323F0F8
:102EE800FF032269E068024313438B602168CB68C3
:102EF80023F0FF036269A06902431343CB60226891
:102F0800136843F00103136000202064202384F831
:102F18003D30206384F83E0070BD80F83C30FEF7F9
:102F28002DFB82E7294B98428CBF0023012399E7A8
:102F38004FF4967505FB03F3254DA5FB03539B0939
:102F48000133A6E7A668BEB9431E05EB450CB3FBE3
:102F5800FCF30133C3F30B03B3FA83F35B0943BBFD
:102F6800C6B9431E05EB4505B3FBF5F30133C3F3BF
:102F78000B0343F40043A3E7431E05EB850C0CEB5E
:102F88008C0CB3FBFCF30133C3F30B03B3FA83F3E9
:102F98005B09E4E7431E05EB850505EB8505B3FBF7
:102FA800F5F30133C3F30B0343F4404388E70423E9
:102FB80086E7012384E7012070470120ACE700BFC2
:102FC800A08601007F841E0083DE1B43FF083D00AE
:102FD800D34D6210002800F0BF8038B5044690F841
:102FE8004130002B51D0022284F841202168CB695E
:102FF80023F47B6323F00F03CB6123681A626369B0
:10300800934263D0E368002B46D11025A368202B98
:1030180000D86D000120FFF7F3FA2369B3F5007FAC
:103028003CD0B0FBF5F000EB800043006269B3FBD5
:10303800F2F30533494AA2FB0323C3F3C002C2EBF0
:10304800D3035B0811029A1EFD2A41D822690A435C
:1030580021681A430A622168CB6923F47B6323F051
:103068000F036268A0680243E0680243A069024354
:10307800134343F40063CB61236A012B2ED0002055
:103088006064012384F8413038BD80F84030344B07
:103098004363FEF7C9FAA6E72025B7E7E36853B10B
:1030A800AD00B0FBF5F000EB800043006269B3FBB4
:1030B800F2F30533BEE7ED00B0FBF5F000EB80005E
:1030C80043006269B3FBF2F30533B3E70021BAE7C3
:1030D800636C43F0100363640120D5E7214B6363FD
:1030E8002268214B9A421FD04FF04022D36923F423
:1030F8007B6323F00F03D36122681B4B9A4215D0E0
:103108004FF0402302221A622268174B9A4210D0CD
:103118004FF04025EB699BB26268B2F5007F0AD098
:10312800C2B94FF4807008E0104ADFE7A3F5806366
:10313800E8E70E4DEEE74FF48070B4F808C0A189B7
:10314800228B40EA0C0001430A43134343F4006313
:10315800EB6194E70020F0E701207047CDCCCCCCA0
:10316800F33200082D3500080038004000340040D4
:10317800002959D038B50446002A57D094F8415050
:10318800EDB2012D54D194F84030DBB2012B51D06F
:10319800012384F84030032384F84130002363641A
:1031A80061622368DB6903F00703032B04D0052B56
:1031B80002D02285628503E0520092B222856285A0
:1031C800A36B1D4A1A64A36B1C4ADA63A36B1C4ADF
:1031D800DA642268238D9BB20C32616AA06BFFF718
:1031E80015FCA8B9002384F8403023685A6812F007
:1031F800020F03D15A6842F002025A602368DA6962
:1032080012F4806F13D1DA6942F48062DA610EE059
:10321800636C43F008036364012384F8413000239E
:1032280084F84030284602E001207047012038BD6C
:103238000220FCE70220FAE74F3200089332000828
:10324800C3330008704708B5806BFFF7FBFF08BD64
:10325800704708B5426A03681288DA60436A023325
:103268004362438D9BB2013B9BB24385438D9BB226
:1032780003B108BD0268536823F0A003536001231B
:1032880080F84130FFF7E4FFF3E708B50346806BA9
:10329800DB694BB90268536823F0020353600023CB
:1032A8004385012380F84130FFF7D2FF08BD7047FE
:1032B80008B50368DA68C36A1A80C36A0233C3624E
:1032C800438E9BB2013B9BB24386438E9BB203B1B4
:1032D80008BD0268536823F060035360012380F837
:1032E8004130FFF7E4FFF3E7704710B584B00446B8
:1032F80002689368039390F84130DBB2042B06D040
:1033080094F84130DBB2032B2CD004B010BD039BE2
:1033180013F0010F03D0536813F0400F1FD1039B24
:1033280013F0400FECD023685A6812F0200FE7D052
:103338005A6822F060025A60002301932368DA6811
:1033480001929B680193019B012384F84130636CCF
:1033580043F0020363642046FFF7C6FFD0E7FFF798
:10336800A7FFDCE7039B13F0020F04D023685B6818
:1033780013F0800F1DD1039B13F0080FC5D02368ED
:103388005A6812F0200FC0D05A6822F0A0025A6082
:103398000023029323689B680293029B012384F80D
:1033A8004130636C43F0040363642046FFF79CFFDD
:1033B800ABE72046FFF74DFFDDE708B5806B0268F5
:1033C800536823F003035360002343854386012396
:1033D80080F84130436C43F008034364FFF784FFEF
:1033E80008BD704708B5436A9A1C426202681B8888
:1033F800D360438D9BB2013B9BB24385438D9BB207
:103408003BB90268536823F0A0035360438E9BB214
:1034180003B108BD012380F84130FFF7E2FFF8E768
:1034280008B50268154B9A421CD04FF04023DA6861
:10343800C36A991CC1621A80438E9BB2013B9BB23E
:103448004386438E9BB263B902680C4B9A420CD0F8
:103458004FF04022536823F060035360438D9BB2C2
:103468002BB108BDA3F58063E1E7054AF2E7012324
:1034780080F84130FFF7B5FFF3E700BF00380040A0
:103488000034004008B5436A9A1C42621A880168F1
:10349800134B994218D04FF04023DA60438D9BB20A
:1034A800013B9BB24385438D9BB263B902680C4BC9
:1034B8009A420CD04FF04022536823F0A003536087
:1034C800438E9BB22BB108BDA3F58063E5E7054A9F
:1034D800F2E7012380F84130FFF783FFF3E700BFED
:1034E800003800400034004008B50368DA68C36A51
:1034F800991CC1621A80438E9BB2013B9BB24386E2
:10350800438E9BB23BB90268536823F06003536053
:10351800438D9BB203B108BD012380F84130FFF70A
:1035280060FFF8E710B586B0044603689A6805920C
:10353800704A93426FD04FF04022916804915B68C3
:103548000393536802936368B3F5007F01D0002B9F
:1035580070D1059B13F0020F03D0039B13F0800F6B
:103568005CD1049B13F0010F03D0029B13F0400FB2
:1035780058D1049B13F0400F24D0029B13F0200F66
:1035880020D022685B4B9A4250D04FF040225368BB
:1035980023F0600353602268536823F0A00353604C
:1035A800002300932368DA6800929B680093009BCD
:1035B800012384F84130636C43F0020363642046BE
:1035C800FFF792FE059B13F0080F22D0039B13F020
:1035D800200F1ED02268536823F0A003536022688E
:1035E800444B9A4224D04FF04022536823F06003A2
:1035F80053600023019323689B680193019B012377
:1036080084F84130636C43F0040363642046FFF799
:103618006BFE06B010BDA2F580628EE72046FFF76C
:10362800E1FE9EE72046FFF7FBFEA2E7324AAEE73F
:10363800314ADAE7049B13F0020F03D0029B13F020
:10364800800F4AD1059B13F0010F03D0039B13F0A1
:10365800400F46D1059B13F0400F1CD0039B13F07D
:10366800200F18D02268536823F060035360226843
:10367800204B9A4239D04FF04022536823F0A003E0
:103688005360012384F84130636C43F002036364A0
:103698002046FFF729FE049B13F0080FB9D0029BC0
:1036A80013F0200FB5D02268124B9A421FD04FF06A
:1036B8004022536823F0A00353602268536823F024
:1036C80060035360012384F84130636C43F00403C2
:1036D80063642046FFF708FE9BE72046FFF7D2FE0B
:1036E800B0E72046FFF700FFB4E7034AC5E7024A00
:1036F800DFE700BF003800400034004000285AD0FF
:1037080010B50446436A33B94368B3F5827F05D0E0
:103718000023C36102E00023036143610023A36225
:1037280094F85130002B40D0022384F8513022689D
:10373800136823F040031360636803F48273A2687C
:1037480002F404421343E26802F40062134322695C
:1037580002F002021343626902F001021343A269F4
:1037680002F400721343E26902F038021343226A3A
:1037780002F080021343A26A02F400522168134344
:103788000B60638B03F00403626A02F01002216885
:1037980013434B602268D36923F40063D36100208C
:1037A8006065012384F8513010BD84F850302046FC
:1037B800FDF7D0FFB8E701207047000030B4026A77
:1037C800036A23F0010303624568836923F07303E6
:1037D8000C681C4322F002028B6813430B4A904288
:1037E80006D0456084614A684263036230BC704712
:1037F80023F00803CA681A4322F0040325F440752D
:103808004A692A438D691543EBE700BF0000014070
:1038180030B4036A026A22F4807202624468C269A0
:1038280022F073020D68154323F400738A6843EA93
:1038380002230D4A904206D04460C5614A68C263BB
:10384800036230BC704723F40063CA6843EA02236A
:1038580023F4806324F440544A6944EA02148A69D0
:1038680044EA0214E8E700BF0000014030B4036AEC
:10387800026A22F4805202624468C26922F4E64273
:103888000D6842EA052223F400538D6843EA0533A4
:10389800074DA84206D04460C2614A6802640362C8
:1038A80030BC704724F480444D6944EA8514F2E73B
:1038B800000001400368274A90420ED0B0F1804FC3
:1038C8000BD0A2F57C42904207D002F5806290426C
:1038D80003D002F58062904203D123F070034A6856
:1038E80013431C4A90421AD0B0F1804F17D0A2F56A
:1038F8007C42904213D002F5806290420FD002F5CC
:10390800806290420BD002F59A32904207D002F5BD
:103918008062904203D002F58062904203D123F482
:103928004073CA68134323F080034A6913438A68C3
:10393800C2620A688262074A904207D0026842F06F
:103948000402026001224261036070470A6902634F
:10395800F4E700BF0000014040B310B5044690F8FA
:103968003D30F3B1022384F83D30214651F8040B71
:10397800FFF7A0FF012384F8463084F83E3084F82E
:103988003F3084F8403084F8413084F8423084F87D
:10399800433084F8443084F8453084F83D300020C2
:1039A80010BD80F83C30FDF70DFFDBE701207047C4
:1039B80030B4036A026A22F0100202624468826923
:1039C80022F4E6420D6842EA052223F020038D68BE
:1039D80043EA05130C4DA84206D0446082614A6848
:1039E8008263036230BC704723F08003CD6843EAEA
:1039F800051323F0400324F440644D6944EA850428
:103A08008D6944EA8504E8E70000014038B590F87C
:103A18003C30012B66D004460D46012380F83C302B
:103A28000C2A5AD8DFE802F0075959591B59595935
:103A38003059595944000068FFF7C0FE226893695D
:103A480043F0080393612268936923F004039361A8
:103A58002268936929690B43936100203EE000685E
:103A6800FFF7A6FF2268936943F400639361226815
:103A7800936923F48063936122689369296943EA0F
:103A880001239361002029E00068FFF7C1FE226846
:103A9800D36943F00803D3612268D36923F0040390
:103AA800D3612268D36929690B43D361002015E0EB
:103AB8000068FFF7DBFE2268D36943F40063D36133
:103AC8002268D36923F48063D3612268D3692969A2
:103AD80043EA0123D361002000E00120002384F899
:103AE8003C3038BD0220FCE790F83C20012A35D054
:103AF80010B40346012280F83C20022280F83D20C1
:103B080002685068946820F0700C086840EA0C005D
:103B180050601A681248824212D0B2F1804F0FD01A
:103B2800A0F57C4082420BD000F58060824207D02D
:103B380000F58060824203D000F59A30824204D1B9
:103B480024F08004496821439160012283F83D20D4
:103B5800002083F83C005DF8044B70470220704752
:103B68000000014030B583B000287AD004460568CB
:103B780090F89534C3B1032384F89534B5F1A04F78
:103B880017D0206800F0E4F8237C8DF80030231D5E
:103B98000ECB206800F093F870B1022384F89534B6
:103BA8000125284603B030BD80F89434FDF7C6FEE1
:103BB800E1E70023A371E4E70021206800F0FAF9A7
:103BC800024608B9034617E0022384F89534012514
:103BD800E7E703EBC30104EB8101012048750B758E
:103BE800CB8500200876C861086203EBC30104EBAB
:103BF800810148620133DBB220799842E9D816E0A6
:103C080002EBC20304EB8303002183F8551283F807
:103C1800542283F85812C3F85C12C3F8601202EBFE
:103C2800C20304EB8303C3F864120132D2B2904298
:103C3800E6D8237C8DF80030231D0ECB206800F0D9
:103C4800DDF8054620B1022384F895340125A8E75C
:103C580000236374012384F89534206800F098F9F0
:103C68009FE701259DE782B000230193019B013363
:103C78000193019BB3F1706F1CD80369002BF5DA2F
:103C88000A23019302E0019B013B0193019B002B56
:103C9800F9D1036943F001030361019B01330193E7
:103CA800019BB3F1706F08D8036913F0010FF4D1C9
:103CB800002000E0032002B070470320FBE784B037
:103CC80010B5044603A880E80E009DF81130012BBA
:103CD80021D1A36B23F48033A363E36823F4840323
:103CE80023F04003E360E36823F44013E3609DF8A6
:103CF8001830012B0AD02046FFF7B5FF9DF80E308B
:103D0800012B1CD0BDE8104004B07047E36843F4B1
:103D18008013E360EFE7E36843F04003E360204685
:103D2800FFF7A1FF9DF8153023B9A36B43F4803347
:103D3800A363E3E7A36B23F48033A363DEE7A368FD
:103D480043F00603A360A36843F02003A360D9E708
:103D5800836823F0010383600020704782B000234A
:103D68000193019B01330193019BB3F1706F15D847
:103D78000369002BF5DA00230193890141F0200142
:103D88000161019B01330193019BB3F1706F08D866
:103D9800036913F0200FF4D1002000E0032002B0E3
:103DA80070470320FBE782B000230193019B013396
:103DB8000193019BB3F1706F13D80369002BF5DAF7
:103DC8000023019310230361019B01330193019B9D
:103DD800B3F1706F08D8036913F0100FF4D1002005
:103DE80000E0032002B070470320FBE7D0F800385A
:103DF8001943C0F8001800207047000084B0F8B5D7
:103E0800044607A880E80E00002306E003F14002FC
:103E180004EB82020021516001330E2BF6D99DF884
:103E2800266006BBD4F8043843F00203C4F804380B
:103E3800A36B43F40013A363A36B23F40023A363CE
:103E4800A36B23F48023A3630023C4F8003E9DF8EA
:103E58002130012B15D19DF81F306BB90021204668
:103E6800FFF7C4FF11E0A36B23F40013A363A36B54
:103E780043F40023A363E7E701212046FFF7B6FFD9
:103E880003E003212046FFF7B1FF10212046FFF78A
:103E980065FF054600B101252046FFF784FF00B104
:103EA800012504F5006C0023CCF81030CCF8143050
:103EB800CCF81C300AE0CBB94FF00060C2F800091A
:103EC80000220A614FF67F328A6001339DF81C1088
:103ED800994210D904EB431202F51061D2F8000997
:103EE8000028E8DB0020C2F80009E9E74FF090401D
:103EF800C2F80009E4E700230AE0BBB14FF090479D
:103F0800C2F8007B002202614FF67F3282600133E3
:103F1800994210D904EB431202F53060D2F8007BC5
:103F2800002FEADB0027C2F8007BEBE74FF00067C1
:103F3800C2F8007BE6E7DCF8103023F48073CCF895
:103F480010300023A3616FF0804363619DF81E3039
:103F58001BB9A36943F01003A361A2690B4B134378
:103F6800A3619DF822301BB1A36943F00803A36144
:103F7800012E04D02846BDE8F84004B07047A36974
:103F880043F0804343F00403A361F3E700383C8027
:103F9800D0F8003E23F00303C0F8003ED0F8043800
:103FA80043F00203C0F8043800207047406900F06D
:103FB8000100704738B50546C36823F0C043C360A5
:103FC800012913D019BBC36843F08043C3600024A0
:103FD8000A20FEF70DFF0A342846FFF7E7FF08B16D
:103FE800C72CF5D9C82C14D0002038BDC36843F0BD
:103FF8000053C36000240A20FEF7FAFE0A3428465C
:10400800FFF7D4FF0128EDD0C72CF4D9EAE7012047
:10401800EBE70120E9E70000034AD2F8883043F4CF
:104028007003C2F88830704700ED00E0DFF834D044
:10403800FFF7F2FF0C480D490D4A002302E0D4585F
:10404800C4500433C4188C42F9D30A4A0A4C0023DA
:1040580001E013600432A242FBD3FCF7DDF8FDF760
:1040680039F9704700000220000000200C000020F1
:10407800A04400080C000020D41D0020FEE700002A
:10408800F8B500BFF8BC08BC9E467047F8B500BF3D
:08409800F8BC08BC9E4670470D
:1040A000000FC93F000F494000CB9640000FC940A8
:1040B0000053FB4000CB164100ED2F41000F49415A
:1040C0000031624100537B41003A8A4100CB964166
:1040D000005CA34100EDAF41007EBC41000FC9412F
:1040E00000A0D5410031E24100C2EE410053FB4146
:1040F00000F20342003A0A420083104200CB16420B
:1041000000141D42005C234200A5294200ED2F420D
:1041100000363642007E3C4200C74242000F494210
:10412000A2000000F9000000830000006E00000003
:104130004E000000440000001500000029000000AF
:10414000FC0000002700000057000000D100000024
:10415000F500000034000000DD000000C000000099
:10416000DB000000620000009500000099000000E4
:104170003C000000430000009000000041000000EF
:10418000FE0000005100000063000000AB000000D2
:10419000DE000000BB000000C50000006100000060
:1041A000B7000000240000006E0000003A0000008C
:1041B000420000004D000000D2000000E0000000BE
:1041C00006000000490000002E000000EA00000088
:1041D00009000000D1000000920000001C00000057
:1041E000FE0000001D000000EB0000001C000000AD
:1041F000B100000029000000A70000003E00000000
:10420000E80000008200000035000000F50000001A
:104210002E000000BB0000004400000084000000ED
:10422000E90000009C000000700000002600000073
:10423000B40000005F0000007E00000041000000AC
:104240003900000091000000D60000003900000095
:10425000830000005300000039000000F40000005B
:104260009C000000840000005F0000008B00000044
:10427000BD000000F9000000280000003B00000025
:104280001F000000F800000097000000FF00000081
:10429000DE00000005000000980000000F00000094
:1042A000EF0000002F000000110000008B00000054
:1042B0005A0000000A0000006D0000001F0000000E
:1042C0006D000000360000007E000000CF000000FE
:1042D00027000000CB00000009000000B70000002C
:1042E0004F000000460000003F0000006600000094
:1042F0009E0000005F000000EA0000002D000000AA
:104300007500000027000000BA000000C700000090
:10431000EB000000E5000000F10000007B00000061
:104320003D0000000700000039000000F700000019
:104330008A0000005200000092000000EA00000025
:104340006B000000FB0000005F000000B1000000F7
:104350001F0000008D0000005D000000080000004C
:10436000560000000300000030000000460000007E
:10437000FC0000007B0000006B000000AB000000B0
:10438000F0000000CF000000BC0000002000000092
:104390009A000000F4000000360000001D0000003C
:1043A000A9000000E300000091000000610000008F
:1043B0005E000000E60000001B0000000800000096
:1043C0006500000099000000850000005F0000000B
:1043D00014000000A0000000680000004000000081
:1043E0008D000000FF000000D800000080000000E9
:1043F0004D000000730000002700000031000000A5
:104400000600000006000000150000005600000035
:10441000CA00000073000000A8000000C9000000EE
:1044200060000000E20000007B000000C00000000F
:104430008C0000006B00000004000000070000007A
:10444000090000000000C93F0000F0390000DA3721
:104450000000A2330000842E0000502B0000C22771
:104460000000D0220000C41F0000C61B000044173B
:1044700000061016000610160000000001020304DA
:104480000000000000000000010203040607080904
:08449000E0CAFF7F01000000FB
:044498000102000815
:04449C00D90100083A
:0C44A00001000000100000000024F400E7
:04000005080040357A
:00000001FF
